{
  "contractName": "MultipleAddressTokenSender",
  "abi": [
    {
      "inputs": [
        {
          "internalType": "contract IERC20Minimal",
          "name": "_token",
          "type": "address"
        }
      ],
      "stateMutability": "nonpayable",
      "type": "constructor"
    },
    {
      "inputs": [],
      "name": "contractAddress",
      "outputs": [
        {
          "internalType": "address",
          "name": "",
          "type": "address"
        }
      ],
      "stateMutability": "view",
      "type": "function"
    },
    {
      "inputs": [],
      "name": "owner",
      "outputs": [
        {
          "internalType": "address",
          "name": "",
          "type": "address"
        }
      ],
      "stateMutability": "view",
      "type": "function"
    },
    {
      "inputs": [
        {
          "internalType": "address[]",
          "name": "recipients",
          "type": "address[]"
        },
        {
          "internalType": "uint256",
          "name": "amount",
          "type": "uint256"
        }
      ],
      "name": "sendTokens",
      "outputs": [],
      "stateMutability": "nonpayable",
      "type": "function"
    }
  ],
  "bytecode": "0x608060405234801561001057600080fd5b506040516105563803806105568339818101604052602081101561003357600080fd5b8101908080519060200190929190505050806000806101000a81548173ffffffffffffffffffffffffffffffffffffffff021916908373ffffffffffffffffffffffffffffffffffffffff16021790555033600160006101000a81548173ffffffffffffffffffffffffffffffffffffffff021916908373ffffffffffffffffffffffffffffffffffffffff16021790555030600260006101000a81548173ffffffffffffffffffffffffffffffffffffffff021916908373ffffffffffffffffffffffffffffffffffffffff16021790555050610440806101166000396000f3fe608060405234801561001057600080fd5b50600436106100415760003560e01c80638da5cb5b14610046578063a338eba51461007a578063f6b4dfb41461013c575b600080fd5b61004e610170565b604051808273ffffffffffffffffffffffffffffffffffffffff16815260200191505060405180910390f35b61013a6004803603604081101561009057600080fd5b81019080803590602001906401000000008111156100ad57600080fd5b8201836020820111156100bf57600080fd5b803590602001918460208302840111640100000000831117156100e157600080fd5b919080806020026020016040519081016040528093929190818152602001838360200280828437600081840152601f19601f82011690508083019250505050505050919291929080359060200190929190505050610196565b005b6101446103b1565b604051808273ffffffffffffffffffffffffffffffffffffffff16815260200191505060405180910390f35b600160009054906101000a900473ffffffffffffffffffffffffffffffffffffffff1681565b600160009054906101000a900473ffffffffffffffffffffffffffffffffffffffff1673ffffffffffffffffffffffffffffffffffffffff163373ffffffffffffffffffffffffffffffffffffffff161461023c576040517f08c379a00000000000000000000000000000000000000000000000000000000081526004018080602001828103825260338152602001806103d86033913960400191505060405180910390fd5b60008251116102b3576040517f08c379a00000000000000000000000000000000000000000000000000000000081526004018080602001828103825260168152602001807f4e6f20726563697069656e74732070726f76696465640000000000000000000081525060200191505060405180910390fd5b60005b82518110156103ac5760008054906101000a900473ffffffffffffffffffffffffffffffffffffffff1673ffffffffffffffffffffffffffffffffffffffff1663a9059cbb84838151811061030757fe5b6020026020010151846040518363ffffffff1660e01b8152600401808373ffffffffffffffffffffffffffffffffffffffff16815260200182815260200192505050602060405180830381600087803b15801561036357600080fd5b505af1158015610377573d6000803e3d6000fd5b505050506040513d602081101561038d57600080fd5b81019080805190602001909291905050505080806001019150506102b6565b505050565b600260009054906101000a900473ffffffffffffffffffffffffffffffffffffffff168156fe546869732066756e6374696f6e206973207265737472696374656420746f2074686520636f6e74726163742773206f776e6572a2646970667358221220607d4184514dcf300724d336f3359440d35e62034072fee9ef41fd23516d2be864736f6c63430007060033",
  "immutableReferences": {},
  "source": "// SPDX-License-Identifier: MIT\npragma solidity ^0.7.0;\n\nimport \"./Interfaces/IERC20Minimal.sol\";\n\n\ncontract MultipleAddressTokenSender {\n    //using IERC20Minimal for IERC20;\n    IERC20Minimal token;\n    address public owner;\n    address public contractAddress;\n\n    constructor(IERC20Minimal _token) {\n        token = _token;\n        owner = msg.sender;\n        contractAddress = address(this);\n    }\n\n    modifier onlyOwner() {\n        require(msg.sender == owner, \"This function is restricted to the contract's owner\");\n        _;\n    }\n\n    function sendTokens(address[] memory recipients, uint256 amount) public onlyOwner {\n        require(recipients.length > 0, \"No recipients provided\");\n\n        for (uint256 i = 0; i < recipients.length; i++) {\n        token.transfer(recipients[i], amount);\n        }\n  }\n}\n",
  "sourcePath": "/Users/fatih/Deploy_Git_Hub/send_erc20_to_multiple_address/contracts/sendTokenMultipleReciever_2.sol",
  "compiler": {
    "name": "solc",
    "version": "0.7.6+commit.7338295f.Emscripten.clang"
  },
  "schemaVersion": "3.4.6",
  "updatedAt": "2022-12-11T11:43:34.495Z",
  "devdoc": {
    "kind": "dev",
    "methods": {},
    "version": 1
  },
  "userdoc": {
    "kind": "user",
    "methods": {},
    "version": 1
  }
}