{
  "contractName": "sendTokenMultipleReciever_1",
  "abi": [
    {
      "inputs": [],
      "stateMutability": "nonpayable",
      "type": "constructor"
    },
    {
      "inputs": [],
      "name": "contractAddress",
      "outputs": [
        {
          "internalType": "address",
          "name": "",
          "type": "address"
        }
      ],
      "stateMutability": "view",
      "type": "function",
      "constant": true
    },
    {
      "inputs": [],
      "name": "owner",
      "outputs": [
        {
          "internalType": "address",
          "name": "",
          "type": "address"
        }
      ],
      "stateMutability": "view",
      "type": "function",
      "constant": true
    },
    {
      "inputs": [
        {
          "internalType": "address",
          "name": "_token",
          "type": "address"
        },
        {
          "internalType": "uint256",
          "name": "_amount",
          "type": "uint256"
        },
        {
          "internalType": "address[]",
          "name": "_recievers",
          "type": "address[]"
        }
      ],
      "name": "send_token_multiple",
      "outputs": [
        {
          "internalType": "string",
          "name": "",
          "type": "string"
        },
        {
          "internalType": "uint256",
          "name": "",
          "type": "uint256"
        },
        {
          "internalType": "uint256",
          "name": "",
          "type": "uint256"
        },
        {
          "internalType": "uint256",
          "name": "",
          "type": "uint256"
        }
      ],
      "stateMutability": "nonpayable",
      "type": "function"
    }
  ],
  "bytecode": "0x608060405234801561001057600080fd5b50336000806101000a81548173ffffffffffffffffffffffffffffffffffffffff021916908373ffffffffffffffffffffffffffffffffffffffff16021790555030600160006101000a81548173ffffffffffffffffffffffffffffffffffffffff021916908373ffffffffffffffffffffffffffffffffffffffff1602179055506107af806100a16000396000f3fe608060405234801561001057600080fd5b50600436106100415760003560e01c806347f4190d146100465780638da5cb5b146101b6578063f6b4dfb4146101ea575b600080fd5b6101266004803603606081101561005c57600080fd5b81019080803573ffffffffffffffffffffffffffffffffffffffff16906020019092919080359060200190929190803590602001906401000000008111156100a357600080fd5b8201836020820111156100b557600080fd5b803590602001918460208302840111640100000000831117156100d757600080fd5b919080806020026020016040519081016040528093929190818152602001838360200280828437600081840152601f19601f82011690508083019250505050505050919291929050505061021e565b6040518080602001858152602001848152602001838152602001828103825286818151815260200191508051906020019080838360005b8381101561017857808201518184015260208101905061015d565b50505050905090810190601f1680156101a55780820380516001836020036101000a031916815260200191505b509550505050505060405180910390f35b6101be6106d9565b604051808273ffffffffffffffffffffffffffffffffffffffff16815260200191505060405180910390f35b6101f26106fd565b604051808273ffffffffffffffffffffffffffffffffffffffff16815260200191505060405180910390f35b606060008060008060009054906101000a900473ffffffffffffffffffffffffffffffffffffffff1673ffffffffffffffffffffffffffffffffffffffff163373ffffffffffffffffffffffffffffffffffffffff16146102ca576040517f08c379a00000000000000000000000000000000000000000000000000000000081526004018080602001828103825260338152602001806107476033913960400191505060405180910390fd5b60008551905060008111610346576040517f08c379a00000000000000000000000000000000000000000000000000000000081526004018080602001828103825260198152602001807f5468657265206973206e6f7420616e792072656369657665720000000000000081525060200191505060405180910390fd5b6000878202905060008973ffffffffffffffffffffffffffffffffffffffff166370a0823160008054906101000a900473ffffffffffffffffffffffffffffffffffffffff166040518263ffffffff1660e01b8152600401808273ffffffffffffffffffffffffffffffffffffffff16815260200191505060206040518083038186803b1580156103d657600080fd5b505afa1580156103ea573d6000803e3d6000fd5b505050506040513d602081101561040057600080fd5b810190808051906020019092919050505090508181101561046c576040517f08c379a00000000000000000000000000000000000000000000000000000000081526004018080602001828103825260238152602001806107246023913960400191505060405180910390fd5b60005b83811015610582578a73ffffffffffffffffffffffffffffffffffffffff166323b872dd60008054906101000a900473ffffffffffffffffffffffffffffffffffffffff168b84815181106104c057fe5b60200260200101518d6040518463ffffffff1660e01b8152600401808473ffffffffffffffffffffffffffffffffffffffff1681526020018373ffffffffffffffffffffffffffffffffffffffff1681526020018281526020019350505050602060405180830381600087803b15801561053957600080fd5b505af115801561054d573d6000803e3d6000fd5b505050506040513d602081101561056357600080fd5b810190808051906020019092919050505050808060010191505061046f565b508973ffffffffffffffffffffffffffffffffffffffff166395d89b416040518163ffffffff1660e01b815260040160006040518083038186803b1580156105c957600080fd5b505afa1580156105dd573d6000803e3d6000fd5b505050506040513d6000823e3d601f19601f82011682018060405250602081101561060757600080fd5b810190808051604051939291908464010000000082111561062757600080fd5b8382019150602082018581111561063d57600080fd5b825186600182028301116401000000008211171561065a57600080fd5b8083526020830192505050908051906020019080838360005b8381101561068e578082015181840152602081019050610673565b50505050905090810190601f1680156106bb5780820380516001836020036101000a031916815260200191505b50604052505050898383965096509650965050505093509350935093565b60008054906101000a900473ffffffffffffffffffffffffffffffffffffffff1681565b600160009054906101000a900473ffffffffffffffffffffffffffffffffffffffff168156fe416d6f756e742061742073656e646572206973206e6f7420656e6f7567682021212121546869732066756e6374696f6e206973207265737472696374656420746f2074686520636f6e74726163742773206f776e6572a2646970667358221220d0ac805221ef8c8f7106a89e700bf0cd917b5ff7082b73874d387659d389da6b64736f6c63430007060033",
  "immutableReferences": {},
  "source": "// SPDX-License-Identifier: MIT\npragma solidity 0.7.6;\nimport \"./Interfaces/IERC20Minimal.sol\";\n\ncontract sendTokenMultipleReciever_1 {\n  address public owner;\n  address public contractAddress;\n\n\nconstructor() {\n    owner = msg.sender;\n    contractAddress = address(this);\n  }\n\n  modifier onlyOwner() {\n    require(msg.sender == owner, \"This function is restricted to the contract's owner\");\n    _;\n  }\n\n\n  function send_token_multiple(address _token, uint _amount, address[] memory _recievers) public onlyOwner returns (string memory, uint, uint, uint) {\n    uint len = _recievers.length;\n    require (len > 0, \"There is not any reciever\");\n    uint requiredTotalAmount = len * _amount;\n    uint ammountAtsender = IERC20Minimal(_token).balanceOf(owner);\n    require (ammountAtsender >= requiredTotalAmount, \"Amount at sender is not enough !!!!\");\n    for (uint i=0; i<len; i++) {\n          IERC20Minimal(_token).transferFrom(owner, _recievers[i], _amount);\n    }\n\n    return (IERC20Minimal(_token).symbol(), _amount, requiredTotalAmount, ammountAtsender);\n  }\n}\n",
  "sourcePath": "/Users/fatih/Deploy_Git_Hub/send_erc20_to_multiple_address/contracts/sendTokenMultipleReciever_1.sol",
  "compiler": {
    "name": "solc",
    "version": "0.7.6+commit.7338295f.Emscripten.clang"
  },
  "schemaVersion": "3.4.11",
  "updatedAt": "2022-12-11T14:30:48.787Z",
  "networkType": "ethereum",
  "devdoc": {
    "kind": "dev",
    "methods": {},
    "version": 1
  },
  "userdoc": {
    "kind": "user",
    "methods": {},
    "version": 1
  }
}