{
  "contractName": "sendTokenMultipleReciever_2",
  "abi": [
    {
      "inputs": [],
      "stateMutability": "nonpayable",
      "type": "constructor"
    },
    {
      "inputs": [],
      "name": "contractAddress",
      "outputs": [
        {
          "internalType": "address",
          "name": "",
          "type": "address"
        }
      ],
      "stateMutability": "view",
      "type": "function"
    },
    {
      "inputs": [],
      "name": "owner",
      "outputs": [
        {
          "internalType": "address",
          "name": "",
          "type": "address"
        }
      ],
      "stateMutability": "view",
      "type": "function"
    },
    {
      "inputs": [
        {
          "internalType": "address",
          "name": "_token",
          "type": "address"
        },
        {
          "internalType": "uint256",
          "name": "amount",
          "type": "uint256"
        },
        {
          "internalType": "address[]",
          "name": "recipients",
          "type": "address[]"
        }
      ],
      "name": "sendTokens",
      "outputs": [],
      "stateMutability": "nonpayable",
      "type": "function"
    }
  ],
  "bytecode": "0x608060405234801561001057600080fd5b50336000806101000a81548173ffffffffffffffffffffffffffffffffffffffff021916908373ffffffffffffffffffffffffffffffffffffffff16021790555030600160006101000a81548173ffffffffffffffffffffffffffffffffffffffff021916908373ffffffffffffffffffffffffffffffffffffffff16021790555061056d806100a16000396000f3fe608060405234801561001057600080fd5b50600436106100415760003560e01c80638da5cb5b146100465780639fde93ce1461007a578063f6b4dfb41461015c575b600080fd5b61004e610190565b604051808273ffffffffffffffffffffffffffffffffffffffff16815260200191505060405180910390f35b61015a6004803603606081101561009057600080fd5b81019080803573ffffffffffffffffffffffffffffffffffffffff16906020019092919080359060200190929190803590602001906401000000008111156100d757600080fd5b8201836020820111156100e957600080fd5b8035906020019184602083028401116401000000008311171561010b57600080fd5b919080806020026020016040519081016040528093929190818152602001838360200280828437600081840152601f19601f8201169050808301925050505050505091929192905050506101b4565b005b6101646104bb565b604051808273ffffffffffffffffffffffffffffffffffffffff16815260200191505060405180910390f35b60008054906101000a900473ffffffffffffffffffffffffffffffffffffffff1681565b60008054906101000a900473ffffffffffffffffffffffffffffffffffffffff1673ffffffffffffffffffffffffffffffffffffffff163373ffffffffffffffffffffffffffffffffffffffff1614610258576040517f08c379a00000000000000000000000000000000000000000000000000000000081526004018080602001828103825260338152602001806105056033913960400191505060405180910390fd5b600081519050600081116102d4576040517f08c379a00000000000000000000000000000000000000000000000000000000081526004018080602001828103825260198152602001807f5468657265206973206e6f7420616e792072656369657665720000000000000081525060200191505060405180910390fd5b6000838202905060008573ffffffffffffffffffffffffffffffffffffffff166370a08231306040518263ffffffff1660e01b8152600401808273ffffffffffffffffffffffffffffffffffffffff16815260200191505060206040518083038186803b15801561034457600080fd5b505afa158015610358573d6000803e3d6000fd5b505050506040513d602081101561036e57600080fd5b81019080805190602001909291905050509050818110156103da576040517f08c379a00000000000000000000000000000000000000000000000000000000081526004018080602001828103825260238152602001806104e26023913960400191505060405180910390fd5b60005b838110156104b2578673ffffffffffffffffffffffffffffffffffffffff1663a9059cbb86838151811061040d57fe5b6020026020010151886040518363ffffffff1660e01b8152600401808373ffffffffffffffffffffffffffffffffffffffff16815260200182815260200192505050602060405180830381600087803b15801561046957600080fd5b505af115801561047d573d6000803e3d6000fd5b505050506040513d602081101561049357600080fd5b81019080805190602001909291905050505080806001019150506103dd565b50505050505050565b600160009054906101000a900473ffffffffffffffffffffffffffffffffffffffff168156fe416d6f756e742061742073656e646572206973206e6f7420656e6f7567682021212121546869732066756e6374696f6e206973207265737472696374656420746f2074686520636f6e74726163742773206f776e6572a2646970667358221220977828feb4a30e9b7f207a153585694d5f8b8d2eb8eb280a36dc8423b497463664736f6c63430007060033",
  "immutableReferences": {},
  "source": "// SPDX-License-Identifier: MIT\npragma solidity ^0.7.0;\n\nimport \"./Interfaces/IERC20Minimal.sol\";\n\n\ncontract sendTokenMultipleReciever_2 {\n    address public owner;\n    address public contractAddress;\n\n    constructor() {\n        owner = msg.sender;\n        contractAddress = address(this);\n    }\n\n    modifier onlyOwner() {\n        require(msg.sender == owner, \"This function is restricted to the contract's owner\");\n        _;\n    }\n\n    function sendTokens(address _token, uint256 amount, address[] memory recipients) public onlyOwner {\n        uint len = recipients.length;\n        require (len > 0, \"There is not any reciever\");\n        uint requiredTotalAmount = len * amount;\n        uint ammountAtcontract = IERC20Minimal(_token).balanceOf(address(this));\n        require (ammountAtcontract >= requiredTotalAmount, \"Amount at sender is not enough !!!!\");\n\n        for (uint256 i = 0; i < len; i++) {\n          IERC20Minimal(_token).transfer(recipients[i], amount);\n        }\n  }\n}\n",
  "sourcePath": "/Users/fatih/Deploy_Git_Hub/send_erc20_to_multiple_address/contracts/sendTokenMultipleReciever_2.sol",
  "compiler": {
    "name": "solc",
    "version": "0.7.6+commit.7338295f.Emscripten.clang"
  },
  "schemaVersion": "3.4.11",
  "updatedAt": "2022-12-11T14:30:46.793Z",
  "devdoc": {
    "kind": "dev",
    "methods": {},
    "version": 1
  },
  "userdoc": {
    "kind": "user",
    "methods": {},
    "version": 1
  }
}